:040000000C947F00DD
:100044000C9438020C9483020C94CE020C94190381
:040064000C94D00622
:1400E4000000000000000000000A00000000000000000000FE
:0500F800005A3C140059
:1400FE00CFEFD1E2CDBFDEBFCE51D0400AEA08830024E9E1B8
:14011200F2E012E0E439F10711F00192FBCF0083E4EEF0E07D
:14012600A0E0B2E010E000E00BBFED3FF10721F0C8953196C0
:14013A000D92F9CF0E944107FFCF439A089588B1877F88B998
:14014E000895222433243092050220920402809104029091AA
:1401620005028A30E0E09E07C0F30895AA92BA9258012224EC
:140176003324309205022092040225E030E085010E94EC0C68
:14018A001801220C331C40900402509005024214530488F3E6
:14019E00B990A99008952224332430920502209204028091FF
:1401B2000402909105028431E0E09E07C0F308952224332404
:1401C600309205022092040280910402909105028832E0E0EB
:1401DA009E07C0F308952224332430920502209204028091ED
:1401EE000402909105028436E0E09E07C0F3089522243324C3
:1402020030920502209204028091040290910502883CE0E0A4
:140216009E07C0F308952224332430920502209204028091B0
:14022A000402909105028039E1E09E07C0F3089580910B0106
:14023E008D7F80930B01089580910B01826080930B01089529
:140252008BB18F7D8BB908955D9A089580910B018B7F8093A1
:140266000B01089580910B01846080930B01089584B38D7FDB
:14027A0084BB0895A19A089580910B018F7B80930B010895D9
:14028E0080910B01806480930B0108958BB18F7E8BB9089575
:1402A2005C9A089580910B018F7780930B01089580910B01B9
:1402B600806880930B010895809102018F7B809302010895BF
:1402CA00809102018064809302010895809102018F7E809341
:1402DE000201089580910201806180930201089580910201B0
:1402F2008F7D80930201089580910201806280930201089590
:14030600809105018F778093050108958091050180688093FE
:14031A000501089584B38E7F84BB0895A09A08958BB18F77F3
:14032E008BB908955F9A08958BB18F7B8BB908955E9A089588
:14034200809105018F7D8093050108958091050180628093C2
:1403560005010895809105018F7B8093050108958091050102
:14036A008064809305010895809105018F7E8093050108950B
:14037E0080910501806180930501089580910501877F80938D
:140392000501089580910501886080930501089580910501E8
:1403A6008D7F809305010895809105018260809305010895D2
:1403BA00809105018B7F80930501089580910501846080934A
:1403CE0005010895222422B88FEF81B925B881E084B928B845
:1403E2008FEF87B92BB880EF8AB92EB82DB821BA20BA24BA56
:1403F60083E083BB2092020180E780930101209205018EEFEC
:14040A0080930401209208012092070120920B0187EC80930D
:14041E000A01089522242092810084E98093850081E0809330
:1404320084008BE6809389008FEF809388008BE680938B00FD
:140446008FEF80938A0020928D0020928C008BE680938700FF
:14045A008FEF80938600209280002092820081E0809381001C
:14046E0008950A921A922A923A924A925A926A927A928A9221
:140482009A920A931A932A933A938A939A93AA93BA93EA9315
:14049600FA930FB60A9220900002222009F4D6DE80910002AC
:1404AA00813009F4E9DE80910002823009F402DF8091000213
:1404BE00833009F42DDF80910002843009F43ADF809100027E
:1404D200853009F459DF09900FBEF991E991B991A991999114
:1404E6008991399129911991099199908990799069905990F3
:1404FA004990399029901990099018950A921A922A923A92D4
:14050E004A925A926A927A928A929A920A931A932A933A93ED
:140522008A939A93AA93BA93EA93FA930FB60A9220900002D4
:14053600222009F491DE80910002813009F4AADE80910002A7
:14054A00823009F4C3DE80910002833009F4E8DE80910002B1
:14055E00843009F4FBDE80910002853009F41ADF09900FBEDB
:14057200F991E991B991A991999189913991299119910991E1
:14058600999089907990699059904990399029901990099097
:14059A0018950A921A922A923A924A925A926A927A928A92E4
:1405AE009A920A931A932A933A938A939A93AA93BA93EA93E8
:1405C200FA930FB60A9220900002222009F452DE8091000203
:1405D600813009F465DE80910002823009F484DE80910002E9
:1405EA00833009F4A3DE80910002843009F4BCDE809100025B
:1405FE00853009F4DBDE09900FBEF991E991B991A991999166
:140612008991399129911991099199908990799069905990C5
:140626004990399029901990099018950A921A922A923A92A6
:14063A004A925A926A927A928A929A920A931A932A933A93C0
:14064E008A939A93AA93BA93EA93FA930FB60A9284E98093D9
:14066200850081E0809384008091040290910502019690930E
:14067600050280930402809100028F5F8093000287E0209023
:14068A000002821518F422242092000220900002222019F5BB
:14069E00DDDDE4DDEDDD20909202209289002090910220928F
:1406B200880020908F023090900220928B0020908D023090DD
:1406C6008E0220928A0020908B0230908C0220928D002090DA
:1406DA00890230908A0220928C0080910002813019F5D0DD78
:1406EE00D9DDE0DD209088022092890020908702209288009D
:14070200209085023090860220928B002090830230908402AC
:1407160020928A00209081023090820220928D0020907F02AC
:14072A003090800220928C0080910002823019F5C7DDD2DD15
:14073E00DDDD20907E022092890020907D0220928800209069
:140752007B0230907C0220928B002090790230907A02209282
:140766008A00209077023090780220928D002090750230906C
:14077A00760220928C0080910002833019F5CEDDD3DDD8DDD1
:14078E00209074022092890020907302209288002090710274
:1407A2003090720220928B0020906F023090700220928A0043
:1407B60020906D0230906E0220928D0020906B0230906C0256
:1407CA0020928C0080910002843019F5BBDDC6DDD1DD20906F
:1407DE006A0220928900209069022092880020906702309032
:1407F200680220928B00209065023090660220928A00209021
:1408060063023090640220928D00209061023090620220922B
:14081A008C0080910002853019F5B8DDC3DDCEDD2090600276
:14082E002092890020905F022092880020905D0230905E0201
:1408420020928B0020905B0230905C0220928A0020905902F3
:1408560030905A0220928D00209057023090580220928C00D2
:14086A0080910602909107020196909307028093060288E2EF
:14087E0090E0209006023090070282159305B8F422243324FD
:140892003092070220920602809108028F5F8093080284E043
:1408A60020900802821518F483E080930802209008022092F5
:1408BA00C60009900FBEF991E991B991A99199918991399168
:1408CE00299119910991999089907990699059904990399049
:1408E200299019900990189522242092C1002092C00086E0C9
:1408F6008093C20087E48093C4002092C50088E98093C1001B
:14090A000895F894222420927400209275005CDD83DDE6DFBF
:14091E00222425BE2092690020926A002092680020926B002E
:1409320020926C0020926D002DBA20926E008FE080936F007C
:14094600209270002092710020927200209273007894089566
:14095A00222733270027112784EB20900302821510F48093B5
:14096E0003022090030280E4829D9001275C304420930202F9
:140982008901012F1127009301020895AA92A02EA0920302FB
:14099600E1DF20900102209292022090020220929102A99062
:1409AA000895AA92A02EA0920302D2DF2090010233243092DE
:1409BE00900220928F0220900202332430928E0220928D02B2
:1409D200A9900895AA92A02EA0920302BDDF20900102332454
:1409E60030928C0220928B0220900202332430928A02209263
:1409FA008902A9900895AA92A02EA0920302A8DF209001020D
:140A0E00209288022090020220928702A9900895AA92A02EC9
:140A2200A092030299DF209001023324309286022092850284
:140A36002090020233243092840220928302A9900895AA9210
:140A4A00A02EA092030284DF2090010233243092820220922E
:140A5E0081022090020233243092800220927F02A9900895A9
:140A7200AA92A02EA09203026FDF2090010220927E0220904C
:140A8600020220927D02A9900895AA92A02E209009023090CC
:140A9A000A024A2C5524420C531C4092030258DF20900102CF
:140AAE00332430927C0220927B0220900202332430927A0225
:140AC20020927902A9900895AA92A02EA092030243DF20900A
:140AD60001023324309278022092770220900202332430927E
:140AEA00760220927502A9900895AA92A02EA09203022EDF33
:140AFE0020900102209274022090020220927302A990089558
:140B1200AA92A02E2A2C332484EB90E08219930920900B0245
:140B260030900C02820D931D8093030213DF2090010233249A
:140B3A0030927202209271022090020233243092700220925B
:140B4E006F02A9900895AA92A02E2A2C332484EB90E082191B
:140B6200930980930302F8DE20900102332430926E02209207
:140B76006D0220900202332430926C0220926B02A9900895CC
:140B8A00AA92A02EA0920302E3DE2090010220926A022090D4
:140B9E00020220926902A9900895AA92A02E2A2C332484EB26
:140BB20090E08219930980930302CEDE2090010233243092F8
:140BC600680220926702209002023324309266022092650248
:140BDA00A9900895AA92A02E2A2C332484EB90E08219930964
:140BEE0080930302B3DE209001023324309264022092630201
:140C02002090020233243092620220926102A9900895AA9286
:140C1600A02EA09203029EDE209001022092600220900202CE
:140C2A0020925F02A9900895AA92A02E2A2C332484EB90E037
:140C3E008219930920900D0230900E02820D931D8093030285
:140C520083DE20900102332430925E0220925D02209002023C
:140C6600332430925C0220925B02A9900895AA92A02E2A2CBE
:140C7A00332484EB90E0821993098093030268DE20900102E8
:140C8E00332430925A022092590220900202332430925802A9
:140CA20020925702A99008950E943C0D622FA02E4E818A2D8D
:140CB600883C31F0082F68DE0A2DD8DE0A2D62DF683C31F09E
:140CCA00062F6FDE062FDFDE062F69DF483C31F0042F7CDEF3
:140CDE00042FF4DE042F7CDF0C94430D0E943C0D622FA02E35
:140CF2004E818A2D883C31F0082F81DE0A2DF9DE0A2D87DF42
:140D0600683C31F0062F88DE062F00DF062F8EDF483C31F01E
:140D1A00042F95DE042F19DF042FA7DF0C94430D0E94210D7B
:140D2E00C22EA02E2197EF80E8822C2D0A2DB6DFE8822C2D7A
:140D42000A2DD2DF21960C94160D0AE51FDE0AE52CDE00272F
:140D56003FDE0AE552DE0AE55FDE002772DE0AE585DE0AE569
:140D6A0092DE0027ADDE0AE5C0DE0AE5CDDE0027ECDE0AE54C
:140D7E0005DF0AE512DF00272BDF0AE544DF0AE551DF002714
:140D920070CF289A089585B18E7F85B908952A923A920A936C
:140DA6008A939A93AA93EA93FA932FB62A920091C6008DE142
:140DBA0092E0E0911902F0911A02E80FF91F008380911902CC
:140DCE0090911A02019690931A02809319028233E0E09E07B6
:140DE20031F42224332430921A022092190229902FBEF99160
:140DF600E991A9919991899109913990299018954A93402FDC
:140E0A004A3719F40E94E50C35C0493729F4009111020E94DB
:140E1E00B70C2EC0483719F40E94480829C0413670F086E665
:140E3200841758F040931102002711270E94820700911102B5
:140E46000E94B70C19C0473650F087E6841738F0002711270E
:140E5A000E948207409312020DC02090120220921102242FC9
:140E6E003327022D11270E94D80C22242092120249910895A6
:140E820044DD5FD9CAD95FD960DF83DF0E948507C4D9C3D920
:140E9600C2D955D9C0D955D92224332430921C0220921B026C
:140EAA0030921A022092190223C02090190230901A0240902F
:140EBE001B0250901C0242145304C1F08DE192E0F201E80FDD
:140ED200F91FA080C201019690931C0280931B028233E0E094
:140EE6009E0731F42224332430921C0220921B020A2D86DF46
:140EFA00DCCF08950091180208950093180208950091150262
:140F0E0011270E94C7040091160211270E94D6040091170223
:140F220011270E94EB040091150211270E94000500911602C2
:140F360011270E940F050091170211270E9424050091150264
:140F4A0011270E9439050091160211270E9448050091170201
:140F5E0011270E9465050091150211270E947A050091160291
:140F720011270E9489050091170211270E94AA050091150228
:140F860011270E94C5050091160211270E94D40500911702AD
:140F9A0011270E94EF050091150211270E940A06009116023A
:140FAE0011270E9419060091170211270C943A064A936A939A
:140FC200229746E968E7262E332439822882242F332708EC33
:140FD60010E00E94950622966991499108954A936A9322971E
:140FEA0046E968E7262E332439822882242F332708EC10E0D4
:140FFE000E94950622966991499108950E94320D402F229770
:14101200642F645041E050E020901302222021F481E08093A2
:14102600130209C080911302813029F42224209213024FEF99
:14103A005FEF8CE0869F198208829001225E3F4F0EE110E020
:14104E002F933F939A010E94060D3F912F91065A1F4F0E94AA
:14106200950622960C94370DAA924A9322974EE1AA242A2C1E
:14107600332439822882242F332708EC10E00E949506229624
:14108A004991A9900895209013022220A1F581E0809313027C
:14109E00002711270E94D604002711270E94190604E610E069
:1410B2000E94EB0404E610E00E943A0608E210E00E940F054D
:1410C60008E210E00E94480508E210E00E94890508E210E069
:1410DA000E94D405002711270E942405002711270E946505F2
:1410EE00002711270E94AA05002711270E94EF0504C022243F
:141102002092130201DF0895209013022220A1F581E0809384
:141116001302002711270E940F05002711270E94D40504E6D7
:14112A0010E00E94240504E610E00E94EF0508E210E00E940A
:14113E00D60408E210E00E94480508E210E00E94890508E206
:1411520010E00E941906002711270E94EB04002711270E94E7
:141166006505002711270E94AA05002711270E943A0604C056
:14117A00222420921302C4DE0895209013022220A1F581E017
:14118E0080931302002711270E944805002711270E94890548
:1411A20004E610E00E94650504E610E00E94AA0508E210E04E
:1411B6000E940F0508E210E00E94D60408E210E00E9419067E
:1411CA0008E210E00E94D405002711270E9424050027112733
:1411DE000E94EB04002711270E943A06002711270E94EF0536
:1411F20004C022242092130287DE08954A937EDE402F81E00D
:1412060080931402002311F47DDE1FC0413011F43CDF1BC0DD
:14121A00423011F438DF17C0433011F471DF13C0443011F447
:14122E006DDF0FC0453011F4A6DF0BC0463011F4A2DF07C004
:14124200473011F411DF03C0483009F45DDE0E94D2004830CD
:1412560019F401E054DE03C0042F0F5F50DE222420921402C4
:14126A00499108950E94580D580122976EE1CC2441E01BC0A5
:14127E00242E220C60911602621981E0849FC0901702C01893
:141292004F3009F4CC242C2C332439822882262F332708EC25
:1412A60010E00E94950685010E94B7004395403118F322961C
:1412BA000C94610D0E94280D5801229741E017C087E0849FA7
:1412CE0019820882242E33242EE130E02219330983E0849F22
:1412E200009115021127001911090E94750685010E94B700E9
:1412F6004395453138F322960C942D0D0E944A0DA02E229759
:14130A00F9DDCC24DD24BB2481E080931402F8DD8501A8DFBD
:14131E008501CEDF41E021C083E0849F19820882242F33272E
:14133200220F331F220F331F225E3F4F08EC10E00E945506B2
:1413460088EC90E09983888328EC30E086E0849F8001025EFA
:14135A001F4F0E94750685010E94B70043954531E8F241E0CC
:14136E0029C083E0849F8CE390E01C0120183108398228822A
:14138200242E3324220C331C220C331C2EE630E02219330919
:1413960008EC10E00E94550688EC90E09983888328EC30E033
:1413AA0086E0849F06E910E0001911090E94750685010E944F
:1413BE00B70043954531A8F241E021C083E0849F19820882CF
:1413D200242F3327220F331F220F331F225E3F4F08EC10E062
:1413E6000E94550688EC90E09983888328EC30E086E0849F3E
:1413FA008001025E1F4F0E94750685010E94B7004395453146
:14140E00E8F241E029C083E0849F8CE390E01C0120183108F3
:1414220039822882242E3324220C331C220C331C2EE630E08A
:141436002219330908EC10E00E94550688EC90E0998388833F
:14144A0028EC30E086E0849F06E910E0001911090E947506B2
:14145E0085010E94B70043954531A8F241E018C087E0849F30
:141472008CE890E01C012018310839822882242F3327265F5D
:141486003F4F83E0849F8001025E1F4F0E94750685010E94AA
:14149A00B7004395453130F341E03BC04B30E8F4242E3324FA
:1414AE0039822882222D3327220F331F225E3F4F08EC10E0A7
:1414C2000E945506242E332439822882222D3327220F331FDF
:1414D600225E3F4F08EC10E00E94750618C0242E33243982B7
:1414EA002882222D33272E5C3F4F08EC10E00E945506242E50
:1414FE00332439822882222D33272E5C3F4F08EC10E00E94D7
:14151200750685010E94B7004395453118F2F4DC222420924B
:14152600140222960C94510D0E94580D2297E4DC6EE1AA2448
:14153A0081E090E06C0180931402E2DC91DD0E94F0004BDD50
:14154E000E94F0008BDD0E94F000442755272EC025E030E013
:14156200241B350B03E010E00E94060DB801625E7F4F85E0C2
:1415760090E05C01A41AB50AAA0CBB1C2A2C33243982288278
:14158A00262F332708EC10E00E9495060E94E1006EE1AA24DD
:14159E002A2C332439822882262F332708EC10E00E94950657
:1415B2000E94E1004F5F5F4F85E090E08417950768F60E943A
:1415C600F000A0DC22242092140222960C94610D4A9392DC86
:1415DA00402F81E080931402002311F491DC37C0413029F4EA
:1415EE000EE110E00E94D60430C0423029F40CE310E00E948E
:14160200D60429C0433029F40EE110E00E940F0522C0443096
:1416160029F40CE310E00E940F051BC0453029F40EE110E0C2
:14162A000E94480514C0463029F40CE310E00E9448050DC0BB
:14163E00473029F40EE110E00E94190606C0483021F40CE322
:1416520010E00E941906483019F401E052DC03C0042F0F5FDB
:141666004EDC222420921402499108950E94580D2297662774
:14167A0077278EE1A82ECC243DDC402F81E080931402002354
:14168E0029F43CDC22242092130267C0413011F4E5DC63C085
:1416A200423011F0433009F45EC0443030F08EE0841718F08E
:1416B600042FA8DC56C08EE0841720F482E1841708F04FC031
:1416CA00433109F03DC0CCDC0E94E1006627772731C025E056
:1416DE0030E0261B370B06E010E00E94060DC8014E96A82E57
:1416F20085E090E06C01C61AD70ACC0CDD1CCC0CDD1C2C2CE7
:141706003324398228822A2D332708EC10E00E9495060E949F
:14171A00E1008EE1A82ECC242C2C332439822882282F3327E0
:14172E0008EC10E00E9495060E94E1006F5F7F4F85E090E092
:141742008617970750F60FC0443118F04A3108F40AC04A310A
:1417560011F4D8DB06C04B3109F403C04C3109F48ED04D316F
:14176A0009F403C0042F0F5FC8DB22242092140222960C9401
:14177E00610D4A932297BCDB402F81E080931402002341F46B
:14179200BBDB222420921302042F0F5FB2DB23C020901302CA
:1417A600222071F481E08093130288EC90E09983888328ECE0
:1417BA0030E004E110E00E94950611C080911302813069F4F4
:1417CE0022242092130288EC90E09983888328EC30E000EAE1
:1417E20010E00E9495062224209214022296499108954A93AC
:1417F60083DB402F81E080931402002341F482DB22242092DB
:14180A001302042F0F5F79DB33C0209013022220A1F481E0D0
:14181E00809313020EE110E00E94D6040EE110E00E94190693
:141832000CE310E00E94EB040CE310E00E943A061BC0809185
:1418460013028130B9F42224209213020091160211270E948B
:14185A00D6040091160211270E9419060091170211270E947A
:14186E00EB040091170211270E943A062224209214024991CB
:1418820008954A936A9368E781E0809314023CDB0E940E013A
:141896000EE110E00E9419060EE110E00E9448050E94F0003E
:1418AA0002E310E00E940A0602E810E00E9439050E94F00057
:1418BE000CE310E00E9419060CE310E00E9448050E94F00016
:1418D20075DB0E94F0000EE110E00E94000506E910E00E9419
:1418E600C5050E94F000002711270E94D604002711270E94B6
:1418FA008905002711270E946505002711270E943A060E94FE
:14190E00F00041E025C000EA10E00E94EB0400EA10E00E94E8
:14192200AA050AEA10E00E940F050AEA10E00E94D4050E9467
:14193600F00008E710E00E94EB0408E710E00E94AA0506E91E
:14194A0010E00E940F0506E910E00E940F050E94F0004395E4
:14195E004530C8F22224209214026991499108954A93402F7B
:14197200413611F43EDF19C0423611F43ADF15C0433611F406
:14198600FCDE11C0443611F423DE0DC0453611F433DC09C0FD
:14199A00463611F469DE05C0473619F400919302ABDC49919B
:1419AE000895AA924A93A22E402F473621F4A09293020A2DA0
:1419C2009FDC4991A99008959FDA0E94F000002798CA689456
:1419D60001C0E894EA92FA928A93EE24FF2480E1000F111FC6
:1419EA00EE1CFF1CE216F30618F0E21AF30A03958A95A1F783
:1419FE0016F40E2D1F2D8991F990E99008950A921A928A9326
:141A12009A93029FC001129F900D039F900D8C0199918991D3
:141A2600199009900895A990B990C990D990E990F9900895EA
:141A3A007A936A935A934A93FA92EA92DA92CA92BA92AA926C
:141A4E0008955A934A93BA92AA920895A990B99049915991B2
:141A620008957A936A935A934A93089549915991699179919A
:141A760008957A936A935A934A93BA92AA920895A990B99044
:141A8A00499159916991799108955A934A93DA92CA92BA9205
:141A9E00AA920895A990B990C990D9904991599108957A93A9
:141AB2006A935A934A93DA92CA92BA92AA920895A990B990EA
:0E1AC600C990D99049915991699179910895EB
:00000001FF
